:020000040800F2
:1000000000000220490B0008590A0008610A000894
:10001000690A0008710A0008790A00080000000057
:10002000000000000000000000000000810A00083D
:100030008F0A0008000000009D0A0008AB0A0008B3
:10004000990B0008990B0008990B0008990B000800
:10005000990B0008990B0008990B0008990B0008F0
:10006000990B0008990B0008990B0008990B0008E0
:10007000990B0008990B0008990B0008990B0008D0
:10008000990B0008990B0008990B0008000000006C
:10009000000000000000000000000000990B0008B4
:1000A000990B0008990B0008990B0008990B0008A0
:1000B000990B0008990B0008990B0008990B000890
:1000C000990B0008990B0008990B0008990B000880
:1000D000990B0008990B0008990B0008000000001C
:1000E000990B0008990B0008990B0008000000000C
:1000F000000000000000000000000000990B000854
:1001000000000000990B0008990B0008990B0008EB
:1001100000000000000000000000000000000000DF
:10012000990B0008990B0008990B0008990B00081F
:10013000990B000800000000000000000000000013
:10014000000000000000000000000000990B000803
:10015000990B0008990B0008990B0008990B0008EF
:10016000990B0008990B0008000000000000000037
:10017000000000000000000000000000000000007F
:1001800000000000990B00080000000000000000C3
:08019000990B0008990B00080F
:1001A00010B5054C237833B9044B13B10448AFF3B1
:1001B00000800123237010BD5C00002000000000BF
:1001C000E434000808B5034B1BB103490348AFF3FF
:1001D000008008BD0000000060000020E43400083A
:1001E000034613F8012B002AFBD1181A0138704777
:1001F00001F0FF01102A2BDB10F0070F08D010F8D8
:10020000013B013A8B422DD010F0070F42B3F6D1DB
:10021000F0B441EA012141EA014122F007047FF0F4
:1002200000070023F0E80256083C85EA010586EA4B
:10023000010685FA47F5A3FA87F586FA47F6A5FA87
:1002400087F68EB9EED1F0BC01F0FF0102F0070293
:1002500032B110F8013B013A83EA010313B1F8D13E
:100260000020704701387047002D06BF354603381F
:10027000073815F0010F07D1013015F4807F02BF58
:10028000013015F4C03F0130F0BC0138704700BFA9
:1002900053B94AB9002908BF00281CBF4FF0FF31ED
:1002A0004FF0FF3000F06AB9ADF1080C6DE904CEF3
:1002B00000F006F8DDF804E0DDE9022304B0704741
:1002C0002DE9F047089D0C46002B4ED194468C45F5
:1002D0008646B2FA82F262D94AB1C2F12003914055
:1002E00020FA03F30CFA02FC194300FA02FE4FEA6B
:1002F0001C471FFA8CF6B1FBF7F44FEA1E4307FBCD
:10030000141143EA014304FB06F199420AD91CEB9C
:10031000030304F1FF3080F01281994240F20F8113
:10032000023C6344591A1FFA8EF3B1FBF7F007FB46
:10033000101143EA014300FB06F69E420AD91CEB6A
:10034000030300F1FF3180F0FC809E4240F2F9800F
:10035000634402389B1B40EA044000211DB1D34096
:100360000022C5E90032BDE8F0878B4205D90DB106
:10037000C5E9000100210846F5E7B3FA83F1002939
:1003800046D1A34202D39042C0F0F080861A64EBBB
:1003900003030120002DE6D0C5E90063E3E7002A4E
:1003A00040F09080A1EB0C044FEA1C481FFA8CF738
:1003B0000121B4FBF8F64FEA1E4308FB164443EA5A
:1003C000044307FB06F0984208D91CEB030306F12F
:1003D000FF3402D2984200F2CD8026461C1A1FFA42
:1003E0008EF3B4FBF8F008FB104443EA044300FB2F
:1003F00007F79F4208D91CEB030300F1FF3402D238
:100400009F4200F2B0802046DB1B40EA0640A5E791
:10041000C1F120068B4022FA06F71F4320FA06FCA2
:1004200004FA01F343EA0C03F44000FA01F8380C33
:100430004FEA1349B4FBF0FE1FFA87FC00FB1E4491
:1004400049EA04440EFB0CF9A14502FA01F20AD96B
:100450003C190EF1FF3A80F08480A14540F2818082
:10046000AEF1020E3C44A4EB09041FFA83F9B4FB7D
:10047000F0F300FB134449EA044403FB0CFCA445DD
:1004800007D93C1903F1FF3067D2A44565D9023B77
:100490003C4443EA0E40A0FB0293A4EB0C049C42B4
:1004A000CE469C4651D34ED055B1B8EB0E0364EB0B
:1004B0000C0404FA06F6CB401E43CC40C5E90064A8
:1004C000002150E7C2F1200320FA03F10CFA02FCEC
:1004D00024FA03F394400C434FEA1C4800FA02FE4E
:1004E0001FFA8CF7B3FBF8F008FB1031230C43EA3A
:1004F000014300FB07F1994208D91CEB030300F10B
:10050000FF362CD299422AD9023863445B1AA4B22E
:10051000B3FBF8F108FB113344EA034401FB07F392
:10052000A34208D91CEB040401F1FF3613D2A34205
:1005300011D902396444E41A41EA004139E704461A
:10054000F0E6084606E7C845AED2B9EB020E63EB0B
:10055000070C0138A8E73146EDE7034699E7304636
:10056000D4E7D6467FE7634402384DE70646234684
:1005700008460FE7023E634430E700BF704700BF04
:1005800080B582B000AF00F009FB00F065F800F024
:1005900043F900F0BFF800F015F904210E4801F00E
:1005A000D7FA01210D4800F0F9FD0346FB71FB79F4
:1005B000002B02D14FF47A7300E00023BB80BB888C
:1005C000184600F00DF8BB88184600F01BF86420B0
:1005D00000F056FBE5E700BF780000200000024075
:1005E00080B483B000AF0346FB80054B1B68FA88DC
:1005F0009A6300BF0C37BD465DF8047B704700BFAF
:100600007800002080B58AB000AF0346FB80FB88ED
:100610000E4A82FB03129210DB17D21A07F108036D
:100620000B49184602F0BEFA07F108031846FFF717
:10063000D7FD03469AB207F108014FF0FF33054892
:1006400001F0F4FE00BF2837BD4680BD67666666D0
:10065000FC340008C000002080B594B000AF07F162
:10066000200330220021184602F0BCFA07F10C03E7
:1006700000221A605A609A60DA601A610023BB6037
:10068000224B1B6C214A43F0805313641F4B1B6C9D
:1006900003F08053BB60BB6800237B601C4B1B686E
:1006A0001B4A43F440431360194B1B6803F4404357
:1006B0007B607B6802233B620123FB6210233B6368
:1006C0000023BB6307F12003184600F099FD0346A1
:1006D000002B01D000F0F2F80F23FB6000233B61F8
:1006E00000237B610023BB610023FB6107F10C0346
:1006F0000021184600F0FCFF0346002B01D000F05B
:10070000DDF800BF5037BD4680BD00BF0038024055
:100710000070004080B58AB000AF07F120030022CE
:100720001A605A603B1D00221A605A609A60DA60B3
:100730001A615A619A61224B4FF080421A60204B35
:1007400053225A601E4B00229A601D4B6322DA60CE
:100750001B4B00221A611A4B00229A61184801F0C3
:10076000A7F90346002B01D000F0A8F800233B6254
:1007700000237B6207F120031946114801F098FD20
:100780000346002B01D000F099F860237B60002322
:10079000BB600023FB6000237B613B1D04221946E4
:1007A000074801F085FA0346002B01D000F086F8D7
:1007B000034800F0D1F800BF2837BD4680BD00BF18
:1007C0007800002080B500AF114B124A1A60104B20
:1007D0004FF416525A600E4B00229A600C4B0022C6
:1007E000DA600B4B00221A61094B0C225A61084B4C
:1007F00000229A61064B0022DA61054801F0C6FD2D
:100800000346002B01D000F059F800BF80BD00BFA7
:10081000C00000200010014080B588B000AF07F193
:100820000C0300221A605A609A60DA601A61002391
:10083000BB601F4B1B6B1E4A43F0040313631C4B2E
:100840001B6B03F00403BB60BB6800237B60184B89
:100850001B6B174A43F001031363154B1B6B03F02B
:1008600001037B607B6800224FF40051114800F0C7
:10087000ADFC4FF40053FB6001233B6100237B611F
:100880000023BB6107F10C0319460A4800F002FB84
:100890000123FB6000233B6101237B6107F10C0313
:1008A0001946054800F0F6FA00BF2037BD4680BD66
:1008B00000380240000802400000024080B400AF4F
:1008C00072B600BF00BFFDE780B483B000AF002365
:1008D0007B60104B5B6C0F4A43F4804353640D4BB9
:1008E0005B6C03F480437B607B6800233B60094BB7
:1008F0001B6C084A43F080531364064B1B6C03F0D7
:1009000080533B603B6800BF0C37BD465DF8047BFD
:10091000704700BF0038024080B485B000AF7860F7
:100920007B681B68B3F1804F0DD10023FB60094B3E
:100930001B6C084A43F001031364064B1B6C03F065
:100940000103FB60FB6800BF1437BD465DF8047B04
:10095000704700BF0038024080B588B000AF7860B3
:1009600007F10C0300221A605A609A60DA601A617B
:100970007B681B68B3F1804F1DD10023BB60104B17
:100980001B6B0F4A43F0010313630D4B1B6B03F00A
:100990000103BB60BB680223FB6002233B610023B1
:1009A0007B610023BB610123FB6107F10C03194646
:1009B000044800F06FFA00BF2037BD4680BD00BF7D
:1009C000003802400000024080B58AB000AF786075
:1009D00007F1140300221A605A609A60DA601A6103
:1009E0007B681B68194A93422CD100233B61184B4A
:1009F0005B6C174A43F010035364154B5B6C03F0B8
:100A000010033B613B690023FB60114B1B6B104AD9
:100A100043F0010313630E4B1B6B03F00103FB60F8
:100A2000FB684FF4C0637B610223BB610023FB6161
:100A300003233B6207237B6207F114031946054831
:100A400000F028FA00BF2837BD4680BD00100140E5
:100A5000003802400000024080B400AF00BFFDE754
:100A600080B400AF00BFFDE780B400AF00BFFDE77A
:100A700080B400AF00BFFDE780B400AF00BFFDE76A
:100A800080B400AF00BFBD465DF8047B704780B402
:100A900000AF00BFBD465DF8047B704780B400AF77
:100AA00000BFBD465DF8047B704780B500AF00F025
:100AB000C7F800BF80BD000080B586B000AF786089
:100AC000144A154BD31A7B617B693B61134B1B683E
:100AD000002B02D1114B124A1A60104B1A687B6826
:100AE00013443A699A4207D202F084F803460C2272
:100AF0001A604FF0FF3309E0084B1B68FB60074B9F
:100B00001A687B681344054A1360FB681846183757
:100B1000BD4680BD00000220000400000801002046
:100B20005802002080B400AF064BD3F88830054A45
:100B300043F47003C2F8883000BFBD465DF8047B03
:100B4000704700BF00ED00E0DFF834D0FFF7EAFFA8
:100B50000C480D490D4A002302E0D458C450043318
:100B6000C4188C42F9D30A4A0A4C002301E01360EE
:100B70000432A242FBD302F043F8FFF701FD7047B5
:100B800000000220000000205C0000206C350008FE
:100B90005C00002058020020FEE7000080B500AF96
:100BA0000E4B1B680D4A43F4007313600B4B1B681C
:100BB0000A4A43F480631360084B1B68074A43F4F6
:100BC00080731360032000F031F90F2000F008F863
:100BD000FFF77AFE0023184680BD00BF003C0240AC
:100BE00080B582B000AF7860124B1A68124B1B7848
:100BF00019464FF47A73B3FBF1F3B2FBF3F31846E3
:100C000000F03BF90346002B01D001230EE07B6886
:100C10000F2B0AD8002279684FF0FF3000F011F94D
:100C2000064A7B681360002300E00123184608375A
:100C3000BD4680BD00000020080000200400002008
:100C400080B400AF064B1B781A46064B1B68134452
:100C5000044A136000BFBD465DF8047B704700BFC7
:100C6000080000200C01002080B400AF034B1B687B
:100C70001846BD465DF8047B704700BF0C0100209C
:100C800080B584B000AF7860FFF7EEFFB8607B6896
:100C9000FB60FB68B3F1FF3F05D00A4B1B781A4697
:100CA000FB681344FB6000BFFFF7DEFF0246BB6832
:100CB000D31AFA689A42F7D800BF00BF1037BD4672
:100CC00080BD00BF0800002080B485B000AF786010
:100CD0007B6803F00703FB600C4BDB68BB60BA6802
:100CE0004FF6FF031340BB60FB681A02BB68134357
:100CF00043F0BF6343F40033BB60044ABB68D36076
:100D000000BF1437BD465DF8047B704700ED00E07E
:100D100080B400AF044BDB681B0A03F007031846DE
:100D2000BD465DF8047B704700ED00E080B483B001
:100D300000AF03463960FB7197F90730002B0ADBDF
:100D40003B68DAB20C4997F907301201D2B20B4472
:100D500083F800230AE03B68DAB20849FB7903F024
:100D60000F03043B1201D2B20B441A7600BF0C37BA
:100D7000BD465DF8047B704700E100E000ED00E057
:100D800080B489B000AFF860B9607A60FB6803F0A6
:100D90000703FB61FB69C3F10703042B28BF04238E
:100DA000BB61FB690433062B02D9FB69033B00E0FE
:100DB00000237B614FF0FF32BB6902FA03F3DA4391
:100DC000BB681A407B699A404FF0FF317B6901FA9A
:100DD00003F3D9437B680B40134318462437BD46C1
:100DE0005DF8047B7047000080B582B000AF78608A
:100DF0007B68013BB3F1807F01D301230FE00A4AF6
:100E00007B68013B53600F214FF0FF30FFF78EFFEF
:100E1000054B00229A60044B07221A6000231846F3
:100E20000837BD4680BD00BF10E000E080B582B04D
:100E300000AF78607868FFF747FF00BF0837BD460E
:100E400080BD80B586B000AF0346B9607A60FB73A1
:100E500000237B61FFF75CFF78617A68B968786985
:100E6000FFF78EFF024697F90F3011461846FFF73D
:100E70005DFF00BF1837BD4680BD80B582B000AFB2
:100E800078607868FFF7B0FF034618460837BD461C
:100E900080BD000080B489B000AF78603960002365
:100EA0007B6100233B610023BB610023FB6159E1AF
:100EB0000122FB6902FA03F37B613B681B687A69D4
:100EC00013403B613A697B699A4240F048813B6834
:100ED0005B6803F00303012B05D03B685B6803F0FC
:100EE0000303022B30D17B689B68BB61FB695B000D
:100EF000032202FA03F3DB43BA691340BB613B6888
:100F0000DA68FB695B0002FA03F3BA691343BB6159
:100F10007B68BA699A607B685B68BB610122FB6988
:100F200002FA03F3DB43BA691340BB613B685B68B9
:100F30001B0903F00102FB6902FA03F3BA691343C8
:100F4000BB617B68BA695A603B685B6803F0030366
:100F5000032B17D07B68DB68BB61FB695B00032256
:100F600002FA03F3DB43BA691340BB613B689A683A
:100F7000FB695B0002FA03F3BA691343BB617B6848
:100F8000BA69DA603B685B6803F00303022B23D184
:100F9000FB69DA087B68083253F82230BB61FB69D1
:100FA00003F007039B000F2202FA03F3DB43BA6945
:100FB0001340BB613B681A69FB6903F007039B00A0
:100FC00002FA03F3BA691343BB61FB69DA087B6871
:100FD0000832B96943F822107B681B68BB61FB6962
:100FE0005B00032202FA03F3DB43BA691340BB61DF
:100FF0003B685B6803F00302FB695B0002FA03F3E2
:10100000BA691343BB617B68BA691A603B685B6865
:1010100003F44033002B00F0A2800023FB60574B09
:101020005B6C564A43F480435364544B5B6C03F44B
:101030008043FB60FB68524AFB699B08023352F80D
:101040002330BB61FB6903F003039B000F2202FA0C
:1010500003F3DB43BA691340BB617B68494A93429F
:1010600019D07B68484A934213D07B68474A934221
:101070000DD07B68464A934207D07B68454A93422D
:1010800001D1042308E0072306E0032304E0022340
:1010900002E0012300E00023FA6902F0030292005B
:1010A0009340BA691343BB613549FB699B0802331E
:1010B000BA6941F82320384B9B68BB613B69DB432D
:1010C000BA691340BB613B685B6803F48013002B73
:1010D00003D0BA693B691343BB612F4ABB69936074
:1010E0002D4BDB68BB613B69DB43BA691340BB61D5
:1010F0003B685B6803F40013002B03D0BA693B69BB
:101100001343BB61244ABB69D360234B5B68BB615B
:101110003B69DB43BA691340BB613B685B6803F41E
:101120000033002B03D0BA693B691343BB611A4AF1
:10113000BB695360184B1B68BB613B69DB43BA69F1
:101140001340BB613B685B6803F48033002B03D022
:10115000BA693B691343BB610F4ABB691360FB6902
:101160000133FB61FB690F2B7FF6A2AE00BF00BF0E
:101170002437BD465DF8047B704700BF003802404D
:101180000038014000000240000402400008024014
:10119000000C024000100240003C014080B485B0C9
:1011A00000AF78600B467B807B681A697B881340B0
:1011B000002B02D00123FB7301E00023FB73FB7BB8
:1011C00018461437BD465DF8047B704780B483B081
:1011D00000AF78600B467B8013467B707B78002BDA
:1011E00003D07A887B689A6103E07B881A047B6865
:1011F0009A6100BF0C37BD465DF8047B7047000064
:1012000080B586B000AF78607B68002B01D10123E8
:1012100067E27B681B6803F00103002B75D0884BE5
:101220009B6803F00C03042B0CD0854B9B6803F0E8
:101230000C03082B12D1824B5B6803F48003B3F5D7
:10124000800F0BD17E4B1B6803F40033002B5BD067
:101250007B685B68002B57D1012342E27B685B68A7
:10126000B3F5803F06D1764B1B68754A43F4803353
:1012700013601DE07B685B68B3F5A02F0CD1704B49
:101280001B686F4A43F4802313606D4B1B686C4AE4
:1012900043F4803313600BE0694B1B68684A23F406
:1012A00080331360664B1B68654A23F48023136008
:1012B0007B685B68002B13D0FFF7D6FC386108E031
:1012C000FFF7D2FC02463B69D31A642B01D90323F2
:1012D00007E25B4B1B6803F40033002BF0D014E0F3
:1012E000FFF7C2FC386108E0FFF7BEFC02463B692D
:1012F000D31A642B01D90323F3E1514B1B6803F488
:101300000033002BF0D100E000BF7B681B6803F0C6
:101310000203002B63D04A4B9B6803F00C03002BA5
:101320000BD0474B9B6803F00C03082B1CD1444B9C
:101330005B6803F48003002B16D1414B1B6803F05C
:101340000203002B05D07B68DB68012B01D0012351
:10135000C7E13B4B1B6823F0F8027B681B69DB008D
:10136000374913430B603AE07B68DB68002B20D0E1
:10137000344B01221A60FFF777FC386108E0FFF771
:1013800073FC02463B69D31A022B01D90323A8E15F
:101390002B4B1B6803F00203002BF0D0284B1B687B
:1013A00023F0F8027B681B69DB00254913430B60BF
:1013B00015E0244B00221A60FFF756FC386108E064
:1013C000FFF752FC02463B69D31A022B01D90323D3
:1013D00087E11B4B1B6803F00203002BF0D17B68F5
:1013E0001B6803F00803002B36D07B685B69002B79
:1013F00016D0154B01221A60FFF736FC386108E061
:10140000FFF732FC02463B69D31A022B01D90323B2
:1014100067E10B4B5B6F03F00203002BF0D01BE086
:10142000094B00221A60FFF71FFC38610EE0FFF73E
:101430001BFC02463B69D31A022B07D9032350E158
:101440000038024000004742800E4742884B5B6FE5
:1014500003F00203002BEAD17B681B6803F004034E
:10146000002B00F097800023FB75814B1B6C03F071
:101470008053002B0FD10023BB607D4B1B6C7C4A3B
:1014800043F0805313647A4B1B6C03F08053BB60B2
:10149000BB680123FB75774B1B6803F48073002B3B
:1014A00018D1744B1B68734A43F480731360FFF7C1
:1014B000DBFB386108E0FFF7D7FB02463B69D31A34
:1014C000022B01D903230CE16A4B1B6803F48073E0
:1014D000002BF0D07B689B68012B06D1644B1B6FFF
:1014E000634A43F0010313671CE07B689B68052B8C
:1014F0000CD15F4B1B6F5E4A43F0040313675C4BD8
:101500001B6F5B4A43F0010313670BE0584B1B6FE3
:10151000574A23F001031367554B1B6F544A23F0BE
:10152000040313677B689B68002B15D0FFF79CFBB7
:1015300038610AE0FFF798FB02463B69D31A41F293
:101540008832934201D90323CBE0494B1B6F03F050
:101550000203002BEED014E0FFF786FB38610AE0AF
:10156000FFF782FB02463B69D31A41F2883293426D
:1015700001D90323B5E03E4B1B6F03F00203002BA0
:10158000EED1FB7D012B05D1394B1B6C384A23F082
:10159000805313647B689B69002B00F0A180344B5F
:1015A0009B6803F00C03082B5CD07B689B69022BC3
:1015B00041D1314B00221A60FFF756FB386108E039
:1015C000FFF752FB02463B69D31A022B01D90323D2
:1015D00087E0274B1B6803F00073002BF0D17B687A
:1015E000DA697B681B6A1A437B685B6A9B011A4352
:1015F0007B689B6A5B08013B1B041A437B68DB6AC0
:101600001B061B4913434B601B4B01221A60FFF75B
:101610002BFB386108E0FFF727FB02463B69D31A32
:10162000022B01D903235CE0114B1B6803F000730C
:10163000002BF0D054E0104B00221A60FFF714FB8F
:10164000386108E0FFF710FB02463B69D31A022B12
:1016500001D9032345E0064B1B6803F00073002B00
:10166000F0D13DE07B689B69012B07D1012338E075
:101670000038024000700040600047421B4B5B682E
:10168000FB607B689B69012B28D0FB6803F4800218
:101690007B68DB699A4221D1FB6803F03F027B68DB
:1016A0001B6A9A421AD1FA6847F6C07313407A68E7
:1016B000526A9201934211D1FB6803F440327B6875
:1016C0009B6A5B08013B1B049A4207D1FB6803F04D
:1016D00070627B68DB6A1B069A4201D0012300E03E
:1016E000002318461837BD4680BD00BF00380240B1
:1016F00080B584B000AF786039607B68002B01D181
:101700000123CCE0684B1B6803F007033A689A4258
:101710000CD9654B3A68D2B21A70634B1B6803F060
:1017200007033A689A4201D00123B8E07B681B683E
:1017300003F00203002B20D07B681B6803F0040336
:10174000002B05D0594B9B68584A43F4E0539360F3
:101750007B681B6803F00803002B05D0534B9B6884
:10176000524A43F460439360504B9B6823F0F0026D
:101770007B689B684D4913438B607B681B6803F053
:101780000103002B44D07B685B68012B07D1474BDA
:101790001B6803F40033002B19D101237FE07B6821
:1017A0005B68022B03D07B685B68032B07D13F4B40
:1017B0001B6803F00073002B09D101236FE03B4B42
:1017C0001B6803F00203002B01D1012367E0374BB4
:1017D0009B6823F003027B685B68344913438B608A
:1017E000FFF742FAF8600AE0FFF73EFA0246FB68AC
:1017F000D31A41F28832934201D903234FE02B4B95
:101800009B6803F00C027B685B689B009A42EBD1FB
:10181000254B1B6803F007033A689A420CD2224B0F
:101820003A68D2B21A70204B1B6803F007033A687B
:101830009A4201D0012332E07B681B6803F0040365
:10184000002B08D0194B9B6823F4E0527B68DB68BF
:10185000164913438B607B681B6803F00803002B59
:1018600009D0124B9B6823F460427B681B69DB0044
:101870000E4913438B6000F021F802460B4B9B6826
:101880001B0903F00F030A49CB5C22FA03F3094A50
:101890001360094B1B681846FFF7A2F9002318468E
:1018A0001037BD4680BD00BF003C024000380240FA
:1018B0001035000800000020040000202DE9B04F82
:1018C00090B000AF00237B630023FB6300233B63E6
:1018D0000023BB63594B9B6803F00C03082B0DD00E
:1018E000082B00F2A180002B02D0042B03D09BE038
:1018F000534BBB639BE0534BBB6398E04F4B5B6820
:1019000003F03F037B634D4B5B6803F48003002BC4
:1019100028D04A4B5B689B0900223B627A623B6A93
:10192000C3F308000021474B03FB01F2002300FB37
:1019300003F31344434AA0FB0212FA620A46BA6256
:10194000FA6A1344FB627B6B0022BB61FA61D7E940
:101950000623D7E90A01FEF79BFC02460B46134615
:10196000FB6353E0354B5B689B0900223B617A6166
:101970003B69C3F3080A4FF0000B52465B464FF039
:1019800000004FF00001590141EAD26150010246C6
:101990000B46B2EB0A0863EB0B094FF000024FF065
:1019A00000034FEA891343EA98634FEA8812B2EBC7
:1019B000080463EB09054FF000024FF00003EB0051
:1019C00043EA5473E20014461D4614EB0A033B60DD
:1019D00045EB0B037B604FF000024FF00003D7E9AB
:1019E000004529468B02214643EA915321468A024B
:1019F000104619467B6B0022BB60FA60D7E90223D0
:101A0000FEF746FC02460B461346FB630B4B5B6836
:101A10001B0C03F0030301335B003B63FA6B3B6B6E
:101A2000B2FBF3F3BB6302E0054BBB6300BFBB6BD0
:101A300018464037BD46BDE8B08F00BF00380240B1
:101A40000024F40040787D0180B400AF034B1B6894
:101A50001846BD465DF8047B704700BF00000020BB
:101A600080B500AFFFF7F0FF0246054B9B689B0A6D
:101A700003F007030349CB5C22FA03F3184680BD49
:101A8000003802402035000880B500AFFFF7DCFFCA
:101A90000246054B9B685B0B03F007030349CB5CD5
:101AA00022FA03F3184680BD0038024020350008B2
:101AB00080B582B000AF78607B68002B01D1012334
:101AC00041E07B6893F83D30DBB2002B06D17B68A8
:101AD000002283F83C207868FEF71EFF7B68022214
:101AE00083F83D207B681A687B68043319461046EA
:101AF00000F0A0F97B68012283F846207B68012270
:101B000083F83E207B68012283F83F207B68012216
:101B100083F840207B68012283F841207B68012202
:101B200083F842207B68012283F843207B680122EE
:101B300083F844207B68012283F845207B680122DA
:101B400083F83D20002318460837BD4680BD0000BD
:101B500080B584B000AF786039603B68002B09D154
:101B60007B6893F83E30DBB2012B14BF01230023C6
:101B7000DBB222E03B68042B09D17B6893F83F304D
:101B8000DBB2012B14BF01230023DBB215E03B685D
:101B9000082B09D17B6893F84030DBB2012B14BFCE
:101BA00001230023DBB208E07B6893F84130DBB20D
:101BB000012B14BF01230023DBB2002B01D0012332
:101BC00068E03B68002B04D17B68022283F83E204A
:101BD00013E03B68042B04D17B68022283F83F208A
:101BE0000BE03B68082B04D17B68022283F840207D
:101BF00003E07B68022283F841207B681B68012296
:101C00003968184600F02EFB7B681B68234A934214
:101C100007D17B681B685A6C7B681B6842F40042E2
:101C20005A647B681B681D4A934218D07B681B6806
:101C3000B3F1804F13D07B681B68194A93420ED0D2
:101C40007B681B68174A934209D07B681B68164A59
:101C5000934204D07B681B68144A934211D17B687D
:101C60001B689B6803F00703FB60FB68062B10D022
:101C70007B681B681A687B681B6842F001021A6067
:101C800007E07B681B681A687B681B6842F00102EA
:101C90001A60002318461037BD4680BD0000014081
:101CA0000004004000080040000C004000400140DB
:101CB00080B586B000AFF860B9607A600023FB752C
:101CC000FB6893F83C30012B01D10223AEE0FB68A6
:101CD000012283F83C207B680C2B00F29F8001A23C
:101CE00052F823F0191D00081D1E00081D1E0008D3
:101CF0001D1E0008591D00081D1E00081D1E00089D
:101D00001D1E00089B1D00081D1E00081D1E00084A
:101D10001D1E0008DB1D0008FB681B68B96818461B
:101D200000F014F9FB681B689A69FB681B6842F0B5
:101D300008029A61FB681B689A69FB681B6822F0BD
:101D400004029A61FB681B689969BB681A69FB68A1
:101D50001B680A439A6164E0FB681B68B96818460F
:101D600000F05AF9FB681B689A69FB681B6842F42B
:101D700000629A61FB681B689A69FB681B6822F421
:101D800080629A61FB681B689969BB681B691A02CB
:101D9000FB681B680A439A6143E0FB681B68B968EB
:101DA000184600F0A5F9FB681B68DA69FB681B6838
:101DB00042F00802DA61FB681B68DA69FB681B689D
:101DC00022F00402DA61FB681B68D969BB681A69F2
:101DD000FB681B680A43DA6123E0FB681B68B9688B
:101DE000184600F0EFF9FB681B68DA69FB681B68AE
:101DF00042F40062DA61FB681B68DA69FB681B6801
:101E000022F48062DA61FB681B68D969BB681B69D0
:101E10001A02FB681B680A43DA6102E00123FB75C2
:101E200000BFFB68002283F83C20FB7D1846183772
:101E3000BD4680BD80B485B000AF786039607B68F6
:101E40001B68FB607B683A4A93420FD07B68B3F112
:101E5000804F0BD07B68374A934207D07B68364A65
:101E6000934203D07B68354A934208D1FB6823F044
:101E70007003FB603B685B68FA681343FB607B6838
:101E80002B4A93421BD07B68B3F1804F17D07B68FD
:101E9000284A934213D07B68274A93420FD07B682D
:101EA000264A93420BD07B68254A934207D07B6831
:101EB000244A934203D07B68234A934208D1FB68AB
:101EC00023F44073FB603B68DB68FA681343FB60F4
:101ED000FB6823F080023B685B691343FB607B680F
:101EE000FA681A603B689A687B68DA623B681A682D
:101EF0007B689A627B680E4A934203D13B681A69F9
:101F00007B681A637B6801225A617B681B6903F056
:101F10000103012B05D17B681B6923F001027B685B
:101F20001A6100BF1437BD465DF8047B704700BFDF
:101F3000000001400004004000080040000C004088
:101F400000400140004401400048014080B487B097
:101F500000AF786039607B681B6A7B617B681B6AB5
:101F600023F001027B681A627B685B683B617B68D7
:101F70009B69FB60FB6823F07003FB60FB6823F048
:101F80000303FB603B681B68FA681343FB607B69D3
:101F900023F002037B613B689B687A6913437B6192
:101FA0007B681C4A93420CD17B6923F008037B6158
:101FB0003B68DB687A6913437B617B6923F0040328
:101FC0007B617B68134A934211D13B6923F4807390
:101FD0003B613B6923F400733B613B685B693A6991
:101FE00013433B613B689B693A6913433B617B68E0
:101FF0003A695A607B68FA689A613B685A687B68FC
:102000005A637B687A691A6200BF1C37BD465DF867
:10201000047B70470000014080B487B000AF786057
:1020200039607B681B6A7B617B681B6A23F0100246
:102030007B681A627B685B683B617B689B69FB60BD
:10204000FB6823F4E043FB60FB6823F44073FB6010
:102050003B681B681B02FA681343FB607B6923F033
:1020600020037B613B689B681B017A6913437B619A
:102070007B681E4A93420DD17B6923F080037B610C
:102080003B68DB681B017A6913437B617B6923F042
:1020900040037B617B68154A934213D13B6923F46B
:1020A00080633B613B6923F400633B613B685B6990
:1020B0009B003A6913433B613B689B699B003A690B
:1020C00013433B617B683A695A607B68FA689A619E
:1020D0003B685A687B689A637B687A691A6200BFBA
:1020E0001C37BD465DF8047B704700BF000001400F
:1020F00080B487B000AF786039607B681B6A7B6111
:102100007B681B6A23F480727B681A627B685B6859
:102110003B617B68DB69FB60FB6823F07003FB605D
:10212000FB6823F00303FB603B681B68FA681343FA
:10213000FB607B6923F400737B613B689B681B0237
:102140007A6913437B617B681D4A93420DD17B6999
:1021500023F400637B613B68DB681B027A691343ED
:102160007B617B6923F480637B617B68144A9342C3
:1021700013D13B6923F480533B613B6923F4005343
:102180003B613B685B691B013A6913433B613B68F8
:102190009B691B013A6913433B617B683A695A604A
:1021A0007B68FA68DA613B685A687B68DA637B6847
:1021B0007A691A6200BF1C37BD465DF8047B704720
:1021C0000000014080B487B000AF786039607B6860
:1021D0001B6A3B617B681B6A23F480527B681A622E
:1021E0007B685B687B617B68DB69FB60FB6823F471
:1021F000E043FB60FB6823F44073FB603B681B68B3
:102200001B02FA681343FB603B6923F400533B61F4
:102210003B689B681B033A6913433B617B68104A28
:10222000934209D17B6923F480437B613B685B69FE
:102230009B017A6913437B617B687A695A607B688A
:10224000FA68DA613B685A687B681A647B683A69A5
:102250001A6200BF1C37BD465DF8047B704700BFA3
:102260000000014080B487B000AFF860B9607A60C8
:10227000BB6803F01F03012202FA03F37B61FB68D2
:102280001A6A7B69DB431A40FB681A62FB681A6AA8
:10229000BB6803F01F03796801FA03F31A43FB6874
:1022A0001A6200BF1C37BD465DF8047B7047000012
:1022B00080B485B000AF786039607B6893F83C30BB
:1022C000012B01D1022350E07B68012283F83C20DE
:1022D0007B68022283F83D207B681B685B68FB609B
:1022E0007B681B689B68BB60FB6823F07003FB6026
:1022F0003B681B68FA681343FB607B681B68FA68DD
:102300005A607B681B681C4A934218D07B681B6824
:10231000B3F1804F13D07B681B68184A93420ED0EC
:102320007B681B68164A934209D07B681B68154A74
:10233000934204D07B681B68134A93420CD1BB685C
:1023400023F08003BB603B685B68BA681343BB60E3
:102350007B681B68BA689A607B68012283F83D201D
:102360007B68002283F83C20002318461437BD46C2
:102370005DF8047B704700BF00000140000400408E
:1023800000080040000C00400040014080B582B0D1
:1023900000AF78607B68002B01D1012342E07B68AD
:1023A00093F84130DBB2002B06D17B68002283F822
:1023B00040207868FEF708FB7B68242283F84120E0
:1023C0007B681B68DA687B681B6822F40052DA605D
:1023D000786800F073F97B681B681A697B681B6872
:1023E00022F490421A617B681B685A697B681B68FB
:1023F00022F02A025A617B681B68DA687B681B68D6
:1024000042F40052DA607B6800225A647B68202222
:1024100083F841207B68202283F842207B680022D9
:102420005A63002318460837BD4680BD80B58AB080
:1024300002AFF860B9603B601346FB8000237B610C
:10244000FB6893F84130DBB2202B75D1BB68002BC1
:1024500002D0FB88002B01D101236EE0FB68002233
:102460005A64FB68212283F84120FEF7FDFB786166
:10247000FB68FA889A84FB68FA88DA84FB689B68B0
:10248000B3F5805F08D1FB681B69002B04D10023E2
:10249000FB61BB68BB6103E0BB68FB610023BB6100
:1024A0002EE03B6800937B6900228021F86800F0F1
:1024B00048F80346002B05D0FB68202283F8412012
:1024C00003233AE0FB69002B0BD1BB691B881A463A
:1024D000FB681B68C2F308025A60BB690233BB6128
:1024E00007E0FB691A78FB681B685A60FB690133D7
:1024F000FB61FB68DB8C9BB2013B9AB2FB68DA8420
:10250000FB68DB8C9BB2002BCBD13B6800937B69D3
:1025100000224021F86800F014F80346002B05D093
:10252000FB68202283F84120032306E0FB68202279
:1025300083F84120002300E0022318462037BD46DF
:1025400080BD80B586B000AFF860B9603B601346CF
:10255000FB713BE03B6AB3F1FF3F37D0FEF784FBF2
:1025600002463B68D31A3A6A9A4202D33B6A002B6E
:1025700001D103233AE0FB681B68DB6803F0040326
:10258000002B23D0BB68802B20D0BB68402B1DD0F4
:10259000FB681B681B6803F00803082B16D1002397
:1025A0007B61FB681B681B687B61FB681B685B6861
:1025B0007B617B69F86800F01DF8FB6808225A64AB
:1025C000FB68002283F8402001230FE0FB681B68B2
:1025D0001A68BB681340BA689A420CBF01230023F3
:1025E000DBB21A46FB799A42B4D00023184618375A
:1025F000BD4680BD80B495B000AF78607B681B6835
:102600000C337B637B6B53E8003F3B633B6B23F4F2
:102610009073FB647B681B680C33FA6C3A64FB6351
:10262000F96B3A6C41E80023BB63BB6B002BE5D12F
:102630007B681B6814333B623B6A53E8003FFB61D5
:10264000FB6923F00103BB647B681B681433BA6C1D
:10265000FA62BB62B96AFA6A41E800237B627B6A6C
:10266000002BE5D17B681B6B012B19D17B681B68A4
:102670000C33FB60FB6853E8003FBB60BB6823F092
:1026800010037B647B681B680C337A6CBA617B61D6
:102690007969BA6941E800233B613B69002BE5D1C8
:1026A0007B68202283F842207B6800221A6300BFE7
:1026B0005437BD465DF8047B704700002DE9B04FEC
:1026C000C0B000AFC7F8F400D7F8F4301B681B693E
:1026D00023F44050D7F8F430D968D7F8F4301A68AA
:1026E00040EA01031361D7F8F4309A68D7F8F43060
:1026F0001B691A43D7F8F4305B691A43D7F8F430F2
:10270000DB691343C7F8F830D7F8F4301B68DB688F
:1027100023F4164121F00C01D7F8F4301A68D7F8E9
:10272000F8300B43D360D7F8F4301B685B6923F4AF
:102730004070D7F8F4309969D7F8F4301A6840EA55
:1027400001035361D7F8F4301A688F4B9A4205D0D1
:10275000D7F8F4301A688D4B9A4204D1FFF794F9F8
:10276000C7F8FC0003E0FFF77BF9C7F8FC00D7F8D7
:10277000F430DB69B3F5004F40F00C81D7F8FC3042
:102780000022C7F8E830C7F8EC20D7E93A452246DE
:102790002B469118B9655B41FB65D7E916232146A5
:1027A00012EB0108294643EB01094FF000024FF0FC
:1027B00000034FEAC90343EA58734FEAC802904640
:1027C0009946234618EB0303C7F8E0302B4649EB44
:1027D0000303C7F8E430D7F8F4305B680022C7F889
:1027E000D830C7F8DC20D7E936120B46DB183B653A
:1027F000134642EB03037B65D7E91423D7E938017D
:10280000FDF746FD02460B46614BA3FB02235B0925
:102810001C01D7F8FC300022C7F8D030C7F8D4200C
:10282000D7E9348942464B469118B9645B41FB6451
:10283000D7E91223414612EB010A494643EB010B4B
:102840004FF000024FF000034FEACB0343EA5A7304
:102850004FEACA0292469B4643461AEB0303C7F867
:10286000C8304B464BEB0303C7F8CC30D7F8F430F5
:102870005B680022C7F8C030C7F8C420D7E930121F
:102880000B46DB183B64134642EB03037B64D7E93A
:102890001023D7E93201FDF7FBFC02460B46114637
:1028A0003B4BA3FB01235B09642202FB03F3CB1A1E
:1028B000DB0003F13202364BA3FB02235B095B0012
:1028C00003F4F8731C44D7F8FC300022C7F8B83082
:1028D000C7F8BC20D7E92E8942464B469118B96308
:1028E0005B41FB63D7E90E234146511839634946E2
:1028F0004B417B634FF000024FF00003D7E90CAB74
:102900005946CB00514643EA51735146CA0010461E
:102910001946034642469B18C7F8B0304B460A4654
:1029200042EB0303C7F8B430D7F8F4305B680022F9
:10293000C7F8A830C7F8AC20D7E92A120B46DB1835
:10294000BB62134642EB0303FB62D7E90A23D7E9D4
:102950002C01FDF79DFC02460B460D4BA3FB021319
:102960005B09642101FB03F3D31ADB003233084A0D
:10297000A2FB03235B0903F00702D7F8F4301B68BE
:1029800022449A6006E100BF00100140001401409B
:102990001F85EB51D7F8FC300022C7F8A030C7F8EC
:1029A000A420D7E9288942464B46911839625B41F9
:1029B0007B62D7E9082341465418494643EB010599
:1029C0004FF000024FF00003EB0043EA5473E200C3
:1029D00014461D464346E318C7F898304B4645EB6E
:1029E0000303C7F89C30D7F8F4305B680022C7F8BF
:1029F0009030C7F894204FF000024FF00003D7E961
:102A0000244529468B00214643EA917321468A00DA
:102A1000D7E92601FDF73CFC02460B46604BA3FBC1
:102A200002235B091C01D7F8FC300022C7F888306C
:102A3000C7F88C20D7E9228942464B469118B961E4
:102A40005B41FB61D7E9062341465118396149468C
:102A50004B417B614FF000024FF00003D7E904AB1C
:102A60005946CB00514643EA51735146CA001046BD
:102A70001946034642469B18C7F880304B460A4623
:102A800042EB0303C7F88430D7F8F4305B680022C8
:102A9000BB67FA674FF000024FF00003D7E91E89C9
:102AA00049468B00414643EA917341468A00D7E983
:102AB0002001FDF7EDFB02460B461146384BA3FB08
:102AC00001235B09642202FB03F3CB1A1B0132339F
:102AD000334AA2FB03235B0903F0F0031C44D7F83D
:102AE000FC3000223B677A67D7E91C8942464B4697
:102AF0009118B9605B41FB60D7E902234146511848
:102B0000396049464B417B604FF000024FF00003B3
:102B1000D7E900AB5946CB00514643EA51735146C1
:102B2000CA0010461946034642469B18BB664B46F0
:102B30000A4642EB0303FB66D7F8F4305B680022D9
:102B40003B667A664FF000024FF00003D7E9188920
:102B500049468B00414643EA917341468A00D7E9D2
:102B60001A01FDF795FB02460B460D4BA3FB021322
:102B70005B09642101FB03F3D31A1B013233084ABA
:102B8000A2FB03235B0903F00F02D7F8F4301B68A4
:102B900022449A6000BF07F58077BD46BDE8B08F3C
:102BA0001F85EB510EB400B59CB01DAB0290069092
:102BB0006FF00041094807910491094953F8042B2B
:102BC00005910068019302A900F094F9029B00228C
:102BD0001A701CB05DF804EB03B070470C000020C5
:102BE0000802FFFF02440346934200D1704703F8F6
:102BF000011BF9E7014B1868704700BF0C0000206B
:102C000070B50D4D0D4C641BA4100026A64209D1D1
:102C10000B4D0C4C00F066FC641BA4100026A64271
:102C200005D170BD55F8043B98470136EEE755F8DD
:102C3000043B98470136F2E7643500086435000824
:102C400064350008683500087047704738B5054698
:102C5000002941D051F8043C0C1F002BB8BFE418E8
:102C600000F0E0F81D4A136833B963601460284629
:102C7000BDE8384000F0DCB8A34208D9206821182C
:102C80008B4201BF19685B6809182160EDE71A469D
:102C90005B680BB1A342FAD911685018A0420BD15E
:102CA00020680144501883421160E0D118685B68C5
:102CB000536008441060DAE702D90C232B60D6E792
:102CC000206821188B4204BF19685B68636004BFE9
:102CD000091821605460CAE738BD00BF54020020C3
:102CE00070B50F4E0C463168054611B900F0A6FBD1
:102CF00030602146284600F0A1FB431C03D14FF071
:102D0000FF34204670BDC41C24F00304A042F8D058
:102D1000211A284600F092FB0130F2D1EFE700BF04
:102D2000500200202DE9F843CD1C25F0030508359D
:102D30000C2D38BF0C25002D064601DBA94204D915
:102D40000C2333600020BDE8F883DFF8D48000F066
:102D500069F8D8F800301C4644BB29463046FFF7D6
:102D6000BFFF431C044658D1D8F800402746002F27
:102D700043D1002C4BD023683946304604EB03097D
:102D800000F05CFB814542D121686D1A294630462E
:102D9000FFF7A6FF01303AD023682B442360D8F810
:102DA00000305A6862BBC8F800700FE02268521BFE
:102DB00020D40B2A17D96119A342256018BF596086
:102DC000636808BFC8F8001062514B60304600F0DD
:102DD0002FF804F10B00231D20F00700C21A1CBFBE
:102DE0001B1AA350AFE76268A3420CBFC8F80020CB
:102DF0005A60EBE723466468AEE73C467F68B6E777
:102E00001A465B68A342FBD100235360DEE70C2324
:102E10003360304600F00CF894E70560D6E700BF59
:102E2000540200200148FFF70FBF00BF4C020020F2
:102E30000148FFF70ABF00BF4C0200202DE9F04710
:102E40008E681F46BE420B6882460C4690462DD8BF
:102E5000B1F90C2012F4906F26D06569096905EB71
:102E60004505A3EB010905EBD5757B1C4B446D10A3
:102E70009D4238BF1D46530527D52946FFF752FF0F
:102E8000064660B321694A4600F0E8FAA38923F4B4
:102E9000906343F08003A381266165614E44A5EBF6
:102EA00009052660A5603E46BE4200D93E46206820
:102EB0003246414600F0A8FAA3689B1BA360236832
:102EC000334423600020BDE8F0872A4600F0D4FA9E
:102ED00006460028E0D121695046FFF7B7FE0C23D3
:102EE000CAF80030A38943F04003A3814FF0FF30BC
:102EF000E9E700002DE9F04F98468B891B069DB04D
:102F000007460D46144610D50B6973B94021FFF7EB
:102F100009FF2860286130B90C233B604FF0FF3077
:102F20001DB0BDE8F08F40236B610023099320237F
:102F30008DF82930CDF80C803023DFF89C818DF896
:102F40002A304FF0010923469A4613F8012B0AB1A3
:102F5000252AF9D1BAEB040B0BD05B462246294651
:102F60003846FFF76BFF013000F0A780099A5A44FA
:102F700009929AF80030002B00F09F8000234FF058
:102F8000FF32CDE905230AF1010A049307938DF876
:102F900053301A935446052214F8011B4E48FDF78E
:102FA00027F9049AD8B9D00644BF20238DF85330AE
:102FB000110744BF2B238DF853309AF800302A2B89
:102FC00015D0079A544600204FF00A0C214611F8FC
:102FD000013B303B092B4BD9B0B1079214E0A0EB79
:102FE000080309FA03F313430493A246D2E7039BB1
:102FF000191D1B680391002BBBBF5B4242F002020C
:1030000007930793B8BF049223782E2B0AD16378D5
:103010002A2B32D1039B1A1D1B68039243EAE373E8
:1030200002340593DFF8C0A0217803225046FDF753
:10303000DFF838B1049BA0EB0A0040228240134322
:103040000134049314F8011B24488DF8281006223B
:10305000FDF7CEF8002836D0214B1BBB039B07336E
:1030600023F0070308330393099B334409936AE76A
:103070000CFB02320C460120A8E700230134059323
:1030800019464FF00A0C204610F8012B303A092A55
:1030900003D9002BC6D00591C4E70CFB01210446DF
:1030A0000123F0E703AB00932A460E4B04A93846F0
:1030B000AFF30080421C0646D6D1AB895B063FF5D4
:1030C0002DAF09982CE703AB00932A46054B04A9C2
:1030D000384600F079F8EDE7283500083235000869
:1030E000000000003D2E00082E3500082DE9F047B5
:1030F000164698468A680B69DDF820909342B8BF5F
:103100001346336091F8432007460C460AB1013359
:1031100033602368990642BF336802333360256801
:1031200015F0060506D104F1190AE36832689B1A06
:10313000AB4226DC94F843302268003B18BF0123E1
:1031400092062BD404F1430241463846C847013069
:103150001ED02368226903F00603042B02BFE56832
:103160003368ED1AA3680CBF25EAE5750025934284
:10317000C4BF9B1AED1800261A34B5421AD100209C
:1031800008E00123524641463846C847013003D182
:103190004FF0FF30BDE8F0870135C6E7E1185A1C53
:1031A000302081F84300224494F8451082F84310FF
:1031B0000233C7E70123224641463846C84701305B
:1031C000E6D00136D9E700002DE9FF470F7E0C9EBF
:1031D000782F914680460C469A4601F1430207D863
:1031E000622F0AD8002F00F0D280582F00F0B9804B
:1031F00004F1420684F842703AE0A7F16303152B0C
:10320000F6D801A151F823F06132000875320008A8
:10321000F1310008F1310008F1310008F131000806
:1032200075320008F1310008F1310008F131000871
:10323000F1310008753300089F3200082F33000871
:10324000F1310008F131000897330008F13100082E
:103250009F320008F1310008F131000837330008CF
:1032600033681A1D1B68326004F1420684F842304C
:1032700001239DE033682068191D3160060601D5E1
:103280001D6803E04506FBD5B3F90050002D03DAB5
:103290002D236D4284F8433059480A2311E02168F8
:1032A0003368080653F8045B02D4490648BFADB240
:1032B0006F2F5348336014BF0A230823002184F87A
:1032C00043106668A660002EA2BF216821F00401A9
:1032D00021600DB9002E4BD01646B5FBF3F103FB70
:1032E0001157C75D06F8017D2F46BB420D46F4D944
:1032F000082B0BD12368DF0708D523696168994241
:10330000DEBF302306F8013C06F1FF36921B226136
:10331000CDF800A04B4603AA21464046FFF7E6FE43
:1033200001304AD14FF0FF3004B0BDE8F087236888
:1033300043F0200323603348782784F845702368DE
:1033400031681F0651F8045B02D45F0648BFADB276
:103350003160D90744BF43F0200323601DB110231F
:10336000ACE72748E9E7236823F020032360F6E76A
:103370001646BDE7336825686169181D30602E0662
:103380001B6801D5196002E06806FBD5198000238F
:1033900023611646BCE733681A1D32601E686268F6
:1033A00000213046FCF724FF08B1801B6060636891
:1033B0002361002384F84330AAE723693246494653
:1033C0004046D0470130ADD023689B0713D4E06856
:1033D000039B9842B8BF1846A6E7012332464946E8
:1033E0004046D04701309DD00135E36803995B1A10
:1033F000AB42F2DCEBE7002504F11906F5E700BF6C
:10340000393500084A350008884210B501EB02043E
:1034100002D98442234607D8431EA14208D011F89E
:10342000012B03F8012FF8E7024401468A4200D13C
:1034300010BD13F8014D02F8014DF7E738B5064D00
:103440000023044608462B60FDF736FB431C02D1DF
:103450002B6803B1236038BD480200200A44914222
:1034600000F1FF3300D1704710B511F8014B03F89C
:10347000014F9142F9D110BD2DE9F041804615462A
:103480000C4621B9BDE8F0411146FFF74BBC2AB903
:10349000FFF7DCFB00242046BDE8F08100F01AF8BD
:1034A0008542064602D8B5EB500FF4D8294640466F
:1034B000FFF738FC07460028ECD0B5422A462146E3
:1034C00028BF3246FFF7CAFF21464046FFF7BEFB42
:1034D0003C46E0E751F8043C181F002BBCBF0B58DA
:1034E000C0187047F8B500BFF8BC08BC9E467047CE
:0C34F000F8B500BFF8BC08BC9E46704751
:1034FC0044757479204379636C653A2025640D0A10
:10350C0000000000000000000000000001020304A5
:10351C00060708090000000001020304232D302BCC
:10352C002000686C4C0065666745464700303132B8
:10353C00333435363738394142434445460030310F
:10354C00323334353637383961626364656600006E
:08355C0084CCFF7F0100000098
:04356400C501000895
:04356800A1010008B5
:10356C000024F400100000000100000010000020F6
:10357C00000000001001002078010020E001002074
:10358C00000000000000000000000000000000002F
:10359C00000000000000000000000000000000001F
:1035AC00000000000000000000000000000000000F
:0C35BC0000000000000000000000000003
:0400000508000B499B
:00000001FF
